{
  "_format": "hh-sol-artifact-1",
  "contractName": "donation",
  "sourceName": "contracts/Donation.sol",
  "abi": [
    {
      "inputs": [],
      "stateMutability": "nonpayable",
      "type": "constructor"
    },
    {
      "inputs": [
        {
          "internalType": "string",
          "name": "name",
          "type": "string"
        },
        {
          "internalType": "string",
          "name": "message",
          "type": "string"
        }
      ],
      "name": "donate",
      "outputs": [],
      "stateMutability": "payable",
      "type": "function"
    },
    {
      "inputs": [],
      "name": "getAccountBalance",
      "outputs": [
        {
          "internalType": "uint256",
          "name": "",
          "type": "uint256"
        }
      ],
      "stateMutability": "view",
      "type": "function"
    },
    {
      "inputs": [],
      "name": "getMemos",
      "outputs": [
        {
          "components": [
            {
              "internalType": "string",
              "name": "name",
              "type": "string"
            },
            {
              "internalType": "string",
              "name": "message",
              "type": "string"
            },
            {
              "internalType": "uint256",
              "name": "timestamp",
              "type": "uint256"
            },
            {
              "internalType": "address",
              "name": "from",
              "type": "address"
            },
            {
              "internalType": "uint256",
              "name": "amount",
              "type": "uint256"
            }
          ],
          "internalType": "struct donation.Memo[]",
          "name": "",
          "type": "tuple[]"
        }
      ],
      "stateMutability": "view",
      "type": "function"
    },
    {
      "inputs": [],
      "name": "getTotalDonationCollected",
      "outputs": [
        {
          "internalType": "uint256",
          "name": "",
          "type": "uint256"
        }
      ],
      "stateMutability": "view",
      "type": "function"
    }
  ],
  "bytecode": "0x6080604052600060015534801561001557600080fd5b5033600260006101000a81548173ffffffffffffffffffffffffffffffffffffffff021916908373ffffffffffffffffffffffffffffffffffffffff160217905550610cf7806100666000396000f3fe60806040526004361061003e5760003560e01c8062facb0e146100435780631653441c1461006e5780636896fabf1461008a578063865c5172146100b5575b600080fd5b34801561004f57600080fd5b506100586100e0565b60405161006591906104e6565b60405180910390f35b6100886004803603810190610083919061065b565b6100ea565b005b34801561009657600080fd5b5061009f61029f565b6040516100ac91906104e6565b60405180910390f35b3480156100c157600080fd5b506100ca6102e0565b6040516100d791906108e1565b60405180910390f35b6000600154905090565b6000341161012d576040517f08c379a000000000000000000000000000000000000000000000000000000000815260040161012490610960565b60405180910390fd5b600260009054906101000a900473ffffffffffffffffffffffffffffffffffffffff1673ffffffffffffffffffffffffffffffffffffffff166108fc349081150290604051600060405180830381858888f19350505050158015610195573d6000803e3d6000fd5b5060006040518060a001604052808481526020018381526020014281526020013373ffffffffffffffffffffffffffffffffffffffff16815260200134815250908060018154018082558091505060019003906000526020600020906005020160009091909190915060008201518160000190816102139190610b8c565b5060208201518160010190816102299190610b8c565b506040820151816002015560608201518160030160006101000a81548173ffffffffffffffffffffffffffffffffffffffff021916908373ffffffffffffffffffffffffffffffffffffffff160217905550608082015181600401555050346001546102959190610c8d565b6001819055505050565b6000600260009054906101000a900473ffffffffffffffffffffffffffffffffffffffff1673ffffffffffffffffffffffffffffffffffffffff1631905090565b60606000805480602002602001604051908101604052809291908181526020016000905b828210156104c457838290600052602060002090600502016040518060a0016040529081600082018054610337906109af565b80601f0160208091040260200160405190810160405280929190818152602001828054610363906109af565b80156103b05780601f10610385576101008083540402835291602001916103b0565b820191906000526020600020905b81548152906001019060200180831161039357829003601f168201915b505050505081526020016001820180546103c9906109af565b80601f01602080910402602001604051908101604052809291908181526020018280546103f5906109af565b80156104425780601f1061041757610100808354040283529160200191610442565b820191906000526020600020905b81548152906001019060200180831161042557829003601f168201915b50505050508152602001600282015481526020016003820160009054906101000a900473ffffffffffffffffffffffffffffffffffffffff1673ffffffffffffffffffffffffffffffffffffffff1673ffffffffffffffffffffffffffffffffffffffff16815260200160048201548152505081526020019060010190610304565b50505050905090565b6000819050919050565b6104e0816104cd565b82525050565b60006020820190506104fb60008301846104d7565b92915050565b6000604051905090565b600080fd5b600080fd5b600080fd5b600080fd5b6000601f19601f8301169050919050565b7f4e487b7100000000000000000000000000000000000000000000000000000000600052604160045260246000fd5b6105688261051f565b810181811067ffffffffffffffff8211171561058757610586610530565b5b80604052505050565b600061059a610501565b90506105a6828261055f565b919050565b600067ffffffffffffffff8211156105c6576105c5610530565b5b6105cf8261051f565b9050602081019050919050565b82818337600083830152505050565b60006105fe6105f9846105ab565b610590565b90508281526020810184848401111561061a5761061961051a565b5b6106258482856105dc565b509392505050565b600082601f83011261064257610641610515565b5b81356106528482602086016105eb565b91505092915050565b600080604083850312156106725761067161050b565b5b600083013567ffffffffffffffff8111156106905761068f610510565b5b61069c8582860161062d565b925050602083013567ffffffffffffffff8111156106bd576106bc610510565b5b6106c98582860161062d565b9150509250929050565b600081519050919050565b600082825260208201905092915050565b6000819050602082019050919050565b600081519050919050565b600082825260208201905092915050565b60005b8381101561073957808201518184015260208101905061071e565b60008484015250505050565b6000610750826106ff565b61075a818561070a565b935061076a81856020860161071b565b6107738161051f565b840191505092915050565b610787816104cd565b82525050565b600073ffffffffffffffffffffffffffffffffffffffff82169050919050565b60006107b88261078d565b9050919050565b6107c8816107ad565b82525050565b600060a08301600083015184820360008601526107eb8282610745565b915050602083015184820360208601526108058282610745565b915050604083015161081a604086018261077e565b50606083015161082d60608601826107bf565b506080830151610840608086018261077e565b508091505092915050565b600061085783836107ce565b905092915050565b6000602082019050919050565b6000610877826106d3565b61088181856106de565b935083602082028501610893856106ef565b8060005b858110156108cf57848403895281516108b0858261084b565b94506108bb8361085f565b925060208a01995050600181019050610897565b50829750879550505050505092915050565b600060208201905081810360008301526108fb818461086c565b905092915050565b600082825260208201905092915050565b7f506c65617365207061792067726561746572207468616e203020657468657200600082015250565b600061094a601f83610903565b915061095582610914565b602082019050919050565b600060208201905081810360008301526109798161093d565b9050919050565b7f4e487b7100000000000000000000000000000000000000000000000000000000600052602260045260246000fd5b600060028204905060018216806109c757607f821691505b6020821081036109da576109d9610980565b5b50919050565b60008190508160005260206000209050919050565b60006020601f8301049050919050565b600082821b905092915050565b600060088302610a427fffffffffffffffffffffffffffffffffffffffffffffffffffffffffffffffff82610a05565b610a4c8683610a05565b95508019841693508086168417925050509392505050565b6000819050919050565b6000610a89610a84610a7f846104cd565b610a64565b6104cd565b9050919050565b6000819050919050565b610aa383610a6e565b610ab7610aaf82610a90565b848454610a12565b825550505050565b600090565b610acc610abf565b610ad7818484610a9a565b505050565b5b81811015610afb57610af0600082610ac4565b600181019050610add565b5050565b601f821115610b4057610b11816109e0565b610b1a846109f5565b81016020851015610b29578190505b610b3d610b35856109f5565b830182610adc565b50505b505050565b600082821c905092915050565b6000610b6360001984600802610b45565b1980831691505092915050565b6000610b7c8383610b52565b9150826002028217905092915050565b610b95826106ff565b67ffffffffffffffff811115610bae57610bad610530565b5b610bb882546109af565b610bc3828285610aff565b600060209050601f831160018114610bf65760008415610be4578287015190505b610bee8582610b70565b865550610c56565b601f198416610c04866109e0565b60005b82811015610c2c57848901518255600182019150602085019450602081019050610c07565b86831015610c495784890151610c45601f891682610b52565b8355505b6001600288020188555050505b505050505050565b7f4e487b7100000000000000000000000000000000000000000000000000000000600052601160045260246000fd5b6000610c98826104cd565b9150610ca3836104cd565b9250828201905080821115610cbb57610cba610c5e565b5b9291505056fea2646970667358221220351e4cbc53c480239771d1ae4b8ac0957a359c517c187ceed054679f3afa23c864736f6c63430008110033",
  "linkReferences": {},
  "deployedLinkReferences": {}
}