{
  "_format": "hh-sol-artifact-1",
  "contractName": "donation",
  "sourceName": "contracts/Donation.sol",
  "abi": [
    {
      "inputs": [],
      "stateMutability": "nonpayable",
      "type": "constructor"
    },
    {
      "inputs": [
        {
          "internalType": "string",
          "name": "name",
          "type": "string"
        },
        {
          "internalType": "string",
          "name": "message",
          "type": "string"
        }
      ],
      "name": "donate",
      "outputs": [],
      "stateMutability": "payable",
      "type": "function"
    },
    {
      "inputs": [],
      "name": "getMemos",
      "outputs": [
        {
          "components": [
            {
              "internalType": "string",
              "name": "name",
              "type": "string"
            },
            {
              "internalType": "string",
              "name": "message",
              "type": "string"
            },
            {
              "internalType": "uint256",
              "name": "timestamp",
              "type": "uint256"
            },
            {
              "internalType": "address",
              "name": "from",
              "type": "address"
            },
            {
              "internalType": "uint256",
              "name": "amount",
              "type": "uint256"
            }
          ],
          "internalType": "struct donation.Memo[]",
          "name": "",
          "type": "tuple[]"
        }
      ],
      "stateMutability": "view",
      "type": "function"
    },
    {
      "inputs": [],
      "name": "getTotalDonationCollected",
      "outputs": [
        {
          "internalType": "uint256",
          "name": "",
          "type": "uint256"
        }
      ],
      "stateMutability": "view",
      "type": "function"
    }
  ],
  "bytecode": "0x608060405234801561001057600080fd5b5033600160006101000a81548173ffffffffffffffffffffffffffffffffffffffff021916908373ffffffffffffffffffffffffffffffffffffffff160217905550610c40806100616000396000f3fe6080604052600436106100335760003560e01c8062facb0e146100385780631653441c14610063578063865c51721461007f575b600080fd5b34801561004457600080fd5b5061004d6100aa565b60405161005a9190610492565b60405180910390f35b61007d60048036038101906100789190610607565b6100eb565b005b34801561008b57600080fd5b5061009461028c565b6040516100a1919061088d565b60405180910390f35b6000600160009054906101000a900473ffffffffffffffffffffffffffffffffffffffff1673ffffffffffffffffffffffffffffffffffffffff1631905090565b6000341161012e576040517f08c379a00000000000000000000000000000000000000000000000000000000081526004016101259061090c565b60405180910390fd5b600160009054906101000a900473ffffffffffffffffffffffffffffffffffffffff1673ffffffffffffffffffffffffffffffffffffffff166108fc349081150290604051600060405180830381858888f19350505050158015610196573d6000803e3d6000fd5b5060006040518060a001604052808481526020018381526020014281526020013373ffffffffffffffffffffffffffffffffffffffff16815260200134815250908060018154018082558091505060019003906000526020600020906005020160009091909190915060008201518160000190816102149190610b38565b50602082015181600101908161022a9190610b38565b506040820151816002015560608201518160030160006101000a81548173ffffffffffffffffffffffffffffffffffffffff021916908373ffffffffffffffffffffffffffffffffffffffff1602179055506080820151816004015550505050565b60606000805480602002602001604051908101604052809291908181526020016000905b8282101561047057838290600052602060002090600502016040518060a00160405290816000820180546102e39061095b565b80601f016020809104026020016040519081016040528092919081815260200182805461030f9061095b565b801561035c5780601f106103315761010080835404028352916020019161035c565b820191906000526020600020905b81548152906001019060200180831161033f57829003601f168201915b505050505081526020016001820180546103759061095b565b80601f01602080910402602001604051908101604052809291908181526020018280546103a19061095b565b80156103ee5780601f106103c3576101008083540402835291602001916103ee565b820191906000526020600020905b8154815290600101906020018083116103d157829003601f168201915b50505050508152602001600282015481526020016003820160009054906101000a900473ffffffffffffffffffffffffffffffffffffffff1673ffffffffffffffffffffffffffffffffffffffff1673ffffffffffffffffffffffffffffffffffffffff168152602001600482015481525050815260200190600101906102b0565b50505050905090565b6000819050919050565b61048c81610479565b82525050565b60006020820190506104a76000830184610483565b92915050565b6000604051905090565b600080fd5b600080fd5b600080fd5b600080fd5b6000601f19601f8301169050919050565b7f4e487b7100000000000000000000000000000000000000000000000000000000600052604160045260246000fd5b610514826104cb565b810181811067ffffffffffffffff82111715610533576105326104dc565b5b80604052505050565b60006105466104ad565b9050610552828261050b565b919050565b600067ffffffffffffffff821115610572576105716104dc565b5b61057b826104cb565b9050602081019050919050565b82818337600083830152505050565b60006105aa6105a584610557565b61053c565b9050828152602081018484840111156105c6576105c56104c6565b5b6105d1848285610588565b509392505050565b600082601f8301126105ee576105ed6104c1565b5b81356105fe848260208601610597565b91505092915050565b6000806040838503121561061e5761061d6104b7565b5b600083013567ffffffffffffffff81111561063c5761063b6104bc565b5b610648858286016105d9565b925050602083013567ffffffffffffffff811115610669576106686104bc565b5b610675858286016105d9565b9150509250929050565b600081519050919050565b600082825260208201905092915050565b6000819050602082019050919050565b600081519050919050565b600082825260208201905092915050565b60005b838110156106e55780820151818401526020810190506106ca565b60008484015250505050565b60006106fc826106ab565b61070681856106b6565b93506107168185602086016106c7565b61071f816104cb565b840191505092915050565b61073381610479565b82525050565b600073ffffffffffffffffffffffffffffffffffffffff82169050919050565b600061076482610739565b9050919050565b61077481610759565b82525050565b600060a083016000830151848203600086015261079782826106f1565b915050602083015184820360208601526107b182826106f1565b91505060408301516107c6604086018261072a565b5060608301516107d9606086018261076b565b5060808301516107ec608086018261072a565b508091505092915050565b6000610803838361077a565b905092915050565b6000602082019050919050565b60006108238261067f565b61082d818561068a565b93508360208202850161083f8561069b565b8060005b8581101561087b578484038952815161085c85826107f7565b94506108678361080b565b925060208a01995050600181019050610843565b50829750879550505050505092915050565b600060208201905081810360008301526108a78184610818565b905092915050565b600082825260208201905092915050565b7f506c65617365207061792067726561746572207468616e203020657468657200600082015250565b60006108f6601f836108af565b9150610901826108c0565b602082019050919050565b60006020820190508181036000830152610925816108e9565b9050919050565b7f4e487b7100000000000000000000000000000000000000000000000000000000600052602260045260246000fd5b6000600282049050600182168061097357607f821691505b6020821081036109865761098561092c565b5b50919050565b60008190508160005260206000209050919050565b60006020601f8301049050919050565b600082821b905092915050565b6000600883026109ee7fffffffffffffffffffffffffffffffffffffffffffffffffffffffffffffffff826109b1565b6109f886836109b1565b95508019841693508086168417925050509392505050565b6000819050919050565b6000610a35610a30610a2b84610479565b610a10565b610479565b9050919050565b6000819050919050565b610a4f83610a1a565b610a63610a5b82610a3c565b8484546109be565b825550505050565b600090565b610a78610a6b565b610a83818484610a46565b505050565b5b81811015610aa757610a9c600082610a70565b600181019050610a89565b5050565b601f821115610aec57610abd8161098c565b610ac6846109a1565b81016020851015610ad5578190505b610ae9610ae1856109a1565b830182610a88565b50505b505050565b600082821c905092915050565b6000610b0f60001984600802610af1565b1980831691505092915050565b6000610b288383610afe565b9150826002028217905092915050565b610b41826106ab565b67ffffffffffffffff811115610b5a57610b596104dc565b5b610b64825461095b565b610b6f828285610aab565b600060209050601f831160018114610ba25760008415610b90578287015190505b610b9a8582610b1c565b865550610c02565b601f198416610bb08661098c565b60005b82811015610bd857848901518255600182019150602085019450602081019050610bb3565b86831015610bf55784890151610bf1601f891682610afe565b8355505b6001600288020188555050505b50505050505056fea26469706673582212200350079b7a630dbfecfbcd2c8769e7bf05608bb6220059be5d9ff9d60415f3b164736f6c63430008110033",
  "linkReferences": {},
  "deployedLinkReferences": {}
}